:020000040800F2
:10000000700C0220BD020008D18000087143000876
:10001000C90200081D1800084D8D000800000000EE
:100020000000000000000000000000007D830008C8
:10003000611A000800000000D9810008358400081A
:10004000D7020008D7020008D7020008D70200082C
:10005000D7020008D7020008D7020008D70200081C
:10006000D7020008D7020008D7020008D70200080C
:10007000D7020008D7020008D7020008D7020008FC
:10008000D7020008D7020008D7020008D7020008EC
:10009000D7020008D7020008D7020008D7020008DC
:1000A000D7020008D7020008D7020008D7020008CC
:1000B000D7020008A1840008D7020008D702000870
:1000C000D7020008D7020008D7020008D7020008AC
:1000D000D7020008858C0008D7020008258D00088B
:1000E000D7020008D7020008D7020008D70200088C
:1000F000D7020008D7020008D7020008D70200087C
:10010000D7020008D7020008D7020008D70200086B
:10011000D7020008D7020008D7020008D70200085B
:10012000D7020008D7020008D7020008D70200084B
:10013000D7020008D7020008D7020008D70200083B
:10014000D7020008D7020008D7020008D70200082B
:10015000D7020008D7020008D7020008D70200081B
:10016000D7020008D7020008D7020008D70200080B
:10017000D7020008D7020008D702000800000000DC
:10018000D7020008D7020008D7020008D7020008EB
:10019000D7020008D7020008D7020008D7020008DB
:1001A000D7020008D7020008D7020008D7020008CB
:1001B000D7020008D7020008D7020008D7020008BB
:1001C000D7020008D702000800000000D70200088C
:1001D000D7020008D7020008D7020008D70200089B
:1001E000D7020008D7020008D7020008D70200088B
:1001F000D7020008D702000800F002F800F04FF81C
:100200000AA090E8000C82448344AAF10107DA4571
:1002100001D100F044F8AFF2090EBAE80F0013F074
:10022000010F18BFFB1A43F001031847E00C01004F
:10023000000D0100103A24BF78C878C1FAD85207DF
:1002400024BF30C830C144BF04680C607047000050
:100250000023002400250026103A28BF78C1FBD8CF
:10026000520728BF30C148BF0B60704766290CF0A9
:100270007681642900F08C80782900F0C580002008
:1002800070471FB50CF066F900F0ECFC040000208C
:1002900000210CF041F9E0601FBD10B510BD00F069
:1002A000E5FD1146FFF7EDFF0BF006FA00F003FE47
:1002B00003B4FFF7F2FF03BC09F045FA0948804791
:1002C00009480047FEE7FEE7FEE7FEE7FEE7FEE738
:1002D000FEE7FEE7FEE7FEE704480549054A064B50
:1002E000704700003D840008F901000870060220F4
:1002F000700C022070080220700802207047000075
:100300000FB4044910B503AA029800F099FC10BC80
:100310005DF814FB380002200FB41CB5074B06AA89
:100320007B4469460090059800F071FC0020694606
:1003300000F080FC1CBC5DF814FB000011090000FB
:1003400070B5044685690068C10601D5302600E015
:100350002026C00707D070BDD4E901213046904760
:10036000206A401C20626D1EF6D570BD70B5044633
:1003700085690078C00707D170BDD4E9012120202C
:100380009047206A401C20626D1EF6D570BD0000AB
:100390002DE9F0410646002410687529314616A55E
:1003A00010D0AFF30080002802DA404213A507E026
:1003B00031688A0701D512A502E0490704D511A5C5
:1003C000012401E0AFF3008000210A2206F1240796
:1003D00009E0B0FBF2FCB0FBF2F302FB1C00303092
:1003E00078541846491C0028F3D123462A46304643
:1003F000BDE8F04100F09FB9000000002D000000B2
:100400002B0000002000000070B504460D46214678
:100410001068AFF300802188090502D50F4A7A449D
:1004200002E00E4A7A440E32002104F1240305E072
:1004300000F00F060009965D5E54491C0028F7D1B4
:1004400020780023000704D5702D02D009B10223C3
:1004500011322046BDE8704000F06DB988090100F6
:100460002DE9F05F894604464FF0000ADFF824B119
:10047000FB44C0F820A02046E168884700287DD0D2
:10048000252806D0D4E901219047206A401C20622B
:10049000F1E700255F462046E168884720280646A8
:1004A00007DB312E05D2B81910F8200C08B105432E
:1004B000F1E7A80701D525F00405C4F81CA0002722
:1004C000C4F818A02A2E09D0304609F035F938B3FF
:1004D00004EB8708303EC8F8186019E059F8041B8F
:1004E000204604EB87029161E1688847012F0646A8
:1004F00018D1E069002820DA25F020051DE0D8F8A1
:10050000180000EB800006EB40003038C8F81800F7
:100510002046E1688847064609F00EF90028EED12A
:10052000012F0AD02E2E08D12046E16888477F1C73
:100530000646022F45F02005C4DBA069002803DA37
:10054000404245F00105A061E80701D025F0100503
:10055000A6B1A6F14100192802D8203645F400655D
:100560004A463146204625604D46FFF77FFE60B182
:10057000012807D0ED1D25F0070000E007E000F19D
:10058000080978E705F1040975E730467AE7206A3B
:10059000BDE8F09F5E090100032A40F2308010F0B0
:1005A000030C00F0158011F8013BBCF1020F62440E
:1005B00098BF11F801CB00F8013B38BF11F8013B9F
:1005C000A2F1040298BF00F801CB38BF00F8013B4C
:1005D00011F0030300F02580083AC0F0088051F8BC
:1005E000043B083A51F804CBA0E80810F5E7121DC7
:1005F0005CBF51F8043B40F8043BAFF30080D207E6
:1006000024BF11F8013B11F801CB48BF11F8012BB1
:1006100024BF00F8013B00F801CB48BF00F8012BD4
:10062000704710B5203AC0F00B80B1E81850203A5E
:10063000A0E81850B1E81850A0E81850BFF4F5AF82
:100640005FEA027C24BFB1E81850A0E8185044BF0C
:1006500018C918C0BDE810405FEA827C24BF51F879
:10066000043B40F8043B08BF7047D20728BF31F86D
:10067000023B48BF11F8012B28BF20F8023B48BFBE
:1006800000F8012B70474FF000020429C0F01280DF
:1006900010F0030C00F01B80CCF1040CBCF1020F35
:1006A00018BF00F8012BA8BF20F8022BA1EB0C010A
:1006B00000F00DB85FEAC17C24BF00F8012B00F800
:1006C000012B48BF00F8012B70474FF0000200B526
:1006D000134694469646203922BFA0E80C50A0E865
:1006E0000C50B1F12001BFF4F7AF090728BFA0E813
:1006F0000C5048BF0CC05DF804EB890028BF40F8DF
:10070000042B08BF704748BF20F8022B11F0804F20
:1007100018BF00F8012B704770477047704770474B
:1007200010B500F0A3FA006810BD10B5044600F043
:100730009DFA046010BD2DE9F0470D46994692469A
:10074000044600F124080168880604D5E06921F018
:100750001001216000E00120A84201DD471B00E0FC
:100760000027A1697A1902EB0900081AA061207814
:10077000C00602D42046FFF7E3FD002608E0D4E9D6
:1007800001211AF806009047206A401C761C20625E
:100790004E45F4DB2078C0060AD52046FFF7D0FD91
:1007A00006E0D4E9012130209047206A401C2062F5
:1007B000381EA7F10107F4DC07E0D4E9012118F89D
:1007C00005009047206A401C2062281EA5F1010503
:1007D000F3DC2046FFF7CAFD2078000602D5022090
:1007E000BDE8F0870120FBE770472DE9FF4F0C467D
:1007F0001E464FF0FF378BB0D2E90001DDF8608074
:100800000A908A46C1F30A5505B93D4600210846BB
:100810004FF00000BAF1000F00F4400005DA00EBE1
:1008200080004FF4400101EA50004FEA9059B9F1BD
:10083000010F00DDB9460A9850EA4A000ED044F68E
:100840001050A5F2FF3545432F14B8F1000F1ED00C
:100850007542291E1EDDC9F100021CE0B8F1010F2E
:100860004FF0000001D0302103E0F24305E02154B5
:10087000401CB042FBDB30460022002121540B9982
:10088000C1F80880C1E900200FB0BDE8F08FBD1BA2
:100890006D1CDEE74A4600DA694206A800F070FAED
:1008A00006AB93E8070003AB83E8070050460A99BC
:1008B00000F03CFB8DE80700A0F500501F380090C9
:1008C0000398002D09DD42F21F014A46084403A99E
:1008D0000390684600F09BFD08E0A0F500504A46F2
:1008E0001F3803A90390684600F0A5FD8DE80700B6
:1008F0000004000C03D04FF0FF30410800E0104628
:10090000B8F1000F03D00022009215461EE0751EBC
:1009100005D400F0AFF9303262556D1EF9D5B346FB
:100920000122084302D000227F1C04E020783028F6
:1009300001D100227F1E002A099786D01DE0112DCB
:1009400007DA00F097F9303262556D1C50EA010267
:10095000F5D1084302D00098C8B10EE00021681E0E
:1009600005E0235C625C63542254401E491C8142B2
:10097000F7DBAB46A81B401E0990002004F80B00D3
:100980000B98099AC0F80880C0E9002B7CE7112673
:100990004FF0000859E72DE9F04F88460446D21D74
:1009A00022F0070191B0D1E90001CDE90A0108F078
:1009B000CFF902460B98C00F01D02D2007E0206828
:1009C000810701D52B2002E0202101EAC000032A83
:1009D000099001D0072A05DB03464146204600F076
:1009E0008FF90BE12078800601D5E06900E0062050
:1009F000B8F1650F814606D0B8F1660F18D0B8F18E
:100A0000670F70D131E00020B9F1110F009001DBC8
:100A1000112301E009F101030AAA01A90CA8FFF7BB
:100A2000E4FEDDE90C70002609F10105834647E08C
:100A300001204B4600904FF000470AAA01A90CA8DC
:100A4000FFF7D3FEDDE90DB00C995D46002610B925
:100A500009F101000D18B9EB050003D4C0F1FF3610
:100A600009F10105A5EB09002BE0B9F1010F01DA4D
:100A70004FF001090020B9F1110F0090484601DD47
:100A8000112300E003460AAA01A90CA8FFF7ADFE56
:100A9000DDE90C704D4600268346207800070AD415
:100AA000AB4500DA5D4601A8012D04DD411911F8BE
:100AB000011C302907D04F4502DA17F1040F04DA80
:100AC000012082460FE06D1EEEE7002F02DCED1BD9
:100AD0003E4403E0781CA84200DD7D1CB81B00F1F9
:100AE000010A4FF000472078000703D4AA4501DB34
:100AF0004FF0FF3A0021B7F1004F0DF143088DF898
:100B0000431024D002202B23002F01DA7F422D2313
:100B10000A21021EA0F1010000DC5FB197FBF1FC8D
:100B200097FBF1F201FB1C7C17460CF1300C08F826
:100B300001CDEEE7A8F1010003702188090501D578
:100B4000452100E06521A0F1010800F8011C099889
:100B50000FA9A1EB0807FF1D00B10120411901EB0E
:100B6000EA70A1693844081A401EA0612078C006C6
:100B700002D42046FFF7E4FB099828B1D4E901210B
:100B80009047206A401C20622078C00622D520466B
:100B9000FFF7D6FB1EE0002E04DBB34502DD01A803
:100BA000805D00E03020D4E901219047206A401C9C
:100BB0002062761CAAF101005FEA000A0AD100F067
:100BC00051F8C0680168405CD4E901219047206A6F
:100BD000401C2062281EA5F10105DCDC07E0D4E9F9
:100BE000012118F8010B9047206A401C2062381E32
:100BF000A7F10107F3DC2046FFF7B8FB032011B093
:100C000043E6000001694A1C02610878704700B59C
:100C10008FB0CDE901310021059105497944CDE935
:100C2000031011466846FFF71BFC0FB000BD000023
:100C3000E5FFFFFF0A6802F8010B0A607047000039
:100C4000074B70B50D467B44FFF7E1FF044628468D
:100C500000F004F910B14FF0FF3070BD204670BDB8
:100C6000C38B0000004870473006022000487047E0
:100C70001006022030B5B0F10A024FEA900E71F171
:100C800000034EEA817EB0EB0E0061EB91014FEA6A
:100C9000101E4EEA017E10EB0E0041EB11114FEADF
:100CA000102E4EEA016E10EB0E0041EB11214FEABF
:100CB000104E4EEA014E10EB0E0041EB1141401870
:100CC00041F100014FEAD00040EA41704FEAD10102
:100CD00010EB80054FEA810444EA907444EB010470
:100CE0006D1944EB0404521BA3414FF0000348BFAD
:100CF0000A3200D530BD401C41F1000130BD00007A
:100D00002DE9F0411F46044603260168072A01F435
:100D1000006004DB08B116A505E016A503E008B1E4
:100D200015A500E015A521F010002060A069C01EE7
:100D3000A0610FB1401EA0612046FFF701FB4FB13B
:100D4000D4E9012138469047206A401C2062C01C2B
:100D5000206206E0206AFAE7D4E9012115F8010BC8
:100D60009047761EF8D22046FFF700FBBDE8F081E1
:100D70004E414E006E616E00494E4600696E66003F
:100D80002DE9F047814616468AB0334878440DC8AD
:100D90008DE80D0030487844801C03AC0DC884E811
:100DA0000D0041F69B300844372190FBF1F290FB97
:100DB000F1F5A5F1800501FB12041B3C02D564424C
:100DC000012000E00020DFF890A080460027FA44D0
:100DD000AAF1BE0A0DE0E00709D03246684607EBEB
:100DE00047010AEB810100F026FB8DE80700641043
:100DF0007F1C002CEFD1184F7F44AC3F18E0E80770
:100E000014D007EB04100DF1180A90E80E008AE8E0
:100E10000E00C068F04201D198190890324606A928
:100E200003A800F008FB03AB83E807006D10641C07
:100E3000002DE4D132466946B8F1000F03A802D074
:100E400000F0E5FA01E000F0F6FAC9E90001C9F89E
:100E500008200AB0BDE8F08764010100007B00F0C3
:100E60008000704700487047100602207546FFF763
:100E7000F9FFAE4605006946534620F00700854657
:100E800018B020B5FFF728FABDE820404FF0000663
:100E90004FF000074FF000084FF0000B21F0070162
:100EA000AC46ACE8C009ACE8C009ACE8C009ACE8A5
:100EB000C0098D4670470446AFF300802046FFF717
:100EC000F7F900004FF0013C50F8042B51F8043BB7
:100ED0009A4215D1A2EB0C03934313EACC130BD126
:100EE00050F8042B51F8043B9A4209D1A2EB0C03B1
:100EF000934313EACC13E7D04FF00000704700BFD4
:100F0000D01A01BAB1FA81F101F0180122FA01F008
:100F1000CB40C1F12001DBB2C0B2C01A2CFA01F300
:100F2000D11A914311EAC311E6D170475FEA400C30
:100F300008BF91F0000F4FEA8C234FEAC12243EA29
:100F400051514FEA1C5018BF00F5F0404FEA3000F5
:100F500018BF41F000415FEA6C5C00F02980BCF1F1
:100F6000FF3F08BF40F080407047130C06BF1204DB
:100F70004FF0100C4FF0000C130E04BF12020CF1D6
:100F8000080C130F04BF12010CF1040C930F04BFE3
:100F900092000CF1020CD30F04BF52000CF1010CB3
:100FA00011464FF00002A0F11F00A0EB0C007047AB
:100FB00011F0004F08BF704731F000413FF4D5AF4A
:100FC0000B0C06BF09044FF0100C4FF0000C0B0E79
:100FD00004BF09020CF1080C0B0F04BF09010CF14E
:100FE000040C8B0F04BF89000CF1020CCB0F04BF63
:100FF00049000CF1010CCCF12003A0EB0C0022FA0B
:1010000003F302FA0CF241EA030100F10100704718
:1010100020F07F4C80EA030023F07F47ACEB07030E
:1010200003F57C5300F0004003F1FF032DE98049F4
:101030004FEA154B09B44FEA144325EA0B4E24EA54
:1010400003480FF2042606EB132749083E785FEAAF
:10105000320203FB0667C7F5000707FB06F64FEAF7
:1010600054374FEAD64606F1020607FB066CCCF170
:10107000005C4FEA1C472CEA074C07FB06F40CFB0C
:1010800006F504EB15464FEA961634BF00204FF0E4
:1010900000404FEAD13706FB07FC4FEA1C4C0CFB23
:1010A0000BF7D21B03FB0CF761EB07010CFB0EF7F0
:1010B000B0EB074072EB17420CFB08F734BFA2EB12
:1010C0000742B2EB074261EB17414FEA0C444FEA8B
:1010D000910706FB07FC4FEA1C4C0CFB0BF7B0EB2F
:1010E000C74072EB573203FB0CF734BFA2EBC74289
:1010F000B2EBC74261EB57310CFB0EF7B0EBC70008
:1011000072EB57720CFB08F734BFA2EBC702B2EBCD
:10111000C70261EB5771039F4FEA816141EA921167
:1011200004EBCC044FEAD1374FEA826206FB07FC9E
:1011300042EA90124FEA80604FEA1C4C0CFB0BF71E
:10114000D21B03FB0CF761EB07010CFB0EF7B0EBB6
:10115000074072EB17420CFB08F734BFA2EB0742C3
:10116000B2EB074261EB17414FEA8C554FEA91070A
:1011700004EB9C2406FB07FC4FEA1C4C0CFB0BF712
:10118000B0EBC74072EB573203FB0CF734BFA2EB56
:10119000C742B2EBC74261EB57310CFB0EF7B0EB25
:1011A000C70072EB57720CFB08F734BFA2EBC70203
:1011B000B2EBC70261EB577115EB4C254FEA816129
:1011C00041EA92114FEA82624FEAD13742EA901225
:1011D00006FB07FC44F100044FEA80604FEA1C4C18
:1011E0000CFB0BF7D21B03FB0CF761EB07010CFBAD
:1011F0000EF7B0EB074072EB17420CFB08F734BF59
:10120000A2EB0742B2EB074261EB174115EB1C154D
:101210004FEA813141EA92414FEA823242EA9042FA
:101220004FEA80304FEA0C7644F1000448EA034369
:101230004EEA0B484FF0000EB2EB080C71EB0307BF
:1012400024BF624639464EEB0E0E4FF0000B0018DD
:10125000524149414BEB0B0BB2EB080C71EB03070E
:101260007BF1000B24BF624639464EEB0E0E4FF069
:10127000000B0018524149414BEB0B0BB2EB080C31
:1012800071EB03077BF1000B24BF624639464EEB3E
:101290000E0E51EA020718BF46F0010616EB0E7655
:1012A00055F1000254F1000103D5BDE88901BDE804
:1012B0000088BDE88901BDE80048B619524141EBFC
:1012C0000101A3F10103704780807F7E7D7C7B7AE2
:1012D0007978777676757473727171706F6E6E6DE2
:1012E0006C6C6B6A6A696868676666656464636388
:1012F00062616160605F5F5E5E5D5D5C5C5B5B5A0E
:101300005A5959585857575656555555545453537A
:1013100052525251515050504F4F4F4E4E4D4D4DD5
:101320004C4C4C4B4B4B4A4A4A4949494848484720
:10133000474747464646454545444444444343435E
:101340004342424242414141002B26D4770021D002
:101350001CB54FEA370703B44FF010004FF01001EF
:101360004FF000000FBCBDE810400BF1010BBBF1CA
:10137000010F08BF5FEA170722BF12F1010211F146
:1013800001014FF0004143F1000300F0004043EA47
:1013900000007047F9D35708DAE746EA064613F12A
:1013A000400F4FEA16461FDD13F1200FDFBF164333
:1013B0000A46002120335B42C8D0C3F1200746EA29
:1013C000064602FA07F74FEA164646EA0706C3F151
:1013D000200722FA03F201FA07F721FA03F14FF08E
:1013E000000342EA0702B1E746EA020646EA064679
:1013F0004FEA164646EA0106BCBF46EA0646360CE8
:101400004FF000034FF000024FF000019EE72DE97E
:10141000C048934630B491E8380007C831EA400C20
:1014200048BF34EA430C03D5FFF7F2FDFFF78CFF0A
:10143000F0BCBDE800882DE9C048934630B491E87F
:10144000380007C810F0804F08BF13F0804F03D159
:1014500000F005F8FFF778FFF0BCBDE8008820F049
:101460007F4780EA030023F07F4C07EB0C03A3F5D2
:101470007C5300F00040A3F1FE0392F0000F00F057
:10148000B38095F0000F00F077802DE901494FEA15
:1014900011404FEA144621EA004800FB06FC24EA0A
:1014A000064708FB06F607FB08F800FB07F718EBF2
:1014B00006484CEB164C4FEA124B18EB07484FEA24
:1014C00015464CEB174022EA0B4E0BFB06FC25EAB7
:1014D00006470EFB06F607FB0EFE0BFB07F71EEB9F
:1014E000064E4CEB164C4FF000061EEB074E4CEB35
:1014F000174B18EB0B0840F1000018EB0E0B58EBE4
:10150000000840F100008F1A4FF000013CBFC943B2
:10151000661B14BFB5EB040C00213CBFC943F61B8E
:101520004FEA17444EEA8E0E27EA04454FEA1C475D
:1015300004FB07622CEA074C05FB07F70CFB05F6DA
:1015400004FB0CFC16EB074642EB174216EB0C466D
:1015500042EB1C421BEB060658EB0202414146EAF5
:101560009E0601D5BDE80189B619524141EB010142
:10157000A3F10103BDE801894FEA14454FEA114781
:1015800024EA054621EA074C05FB07F406FB07F7AA
:101590000CFB06F105FB0CFC11EB074144EB174477
:1015A0004FEA124711EB0C4144EB1C4422EA074C72
:1015B00005FB07F206FB07F70CFB06F605FB0CFC28
:1015C00016EB074642EB174216EB0C4642EB1C4566
:1015D0006A1854F1000148BF7047B619524141EBF7
:1015E0000101A3F10103704795F0000F37D04FEAD6
:1015F00011424FEA144721EA024624EA074C02FB53
:1016000007F106FB07F70CFB06F402FB0CFC14EBDE
:10161000074441EB17414FEA154714EB0C4441EBEB
:101620001C4125EA074C02FB07F506FB07F70CFBFC
:1016300006F602FB0CFC16EB074645EB174516EBCE
:101640000C4645EB1C42121951F1000148BF70478E
:10165000B619524141EB0101A3F1010370474FEA72
:1016600014454FEA114724EA054621EA074C05FBD9
:1016700007F106FB07F70CFB06F24FF0000605FB2F
:101680000CFC12EB074241EB174112EB0C4251EB01
:101690001C4148BF7047921841EB0101A3F10103BF
:1016A000704700005A49096821F44031594AC2F88C
:1016B00004131146D1F8041342681143544A1160CF
:1016C0000168496821F480710268516001684A68C4
:1016D000016942EA0121026851600168496821F00C
:1016E000407102685160016849688268114302686C
:1016F00051600168896821F40061026891600168A5
:101700008968C268114302689160434A816A9142C4
:1017100018D00168896821F07061026891600168E1
:101720008968826A1143026891600168896821F0C2
:1017300040510268916001688968C26A1143026879
:1017400091600BE00168896821F070610268916026
:101750000168896821F040510268916001688968D8
:1017600021F002010268916001688A68816942EA99
:10177000410102689160016AD1B10168496841F490
:101780000061026851600168496821F460410268A3
:10179000516001684A68416A491E4FF4604393FAF8
:1017A000A3F3B3FA83F399400A4301684A6005E062
:1017B0000168496821F40061026851600168C96AE2
:1017C00021F470010268D1620168CA6A818B491EE6
:1017D00042EA01510268D1620168896821F400710E
:1017E0000268916001688A68016B42EA41210268DF
:1017F00091600168896821F48061026891600168E4
:101800008A68416942EA812102689160704700005C
:1018100004230140002001400100000F00BFFEE74B
:1018200010B500BF00BF00BF00BF00BFBFF34F8FA8
:1018300000BF00BF00BF00BF00BF00BFBFF36F8F7E
:1018400000BF00BF00BF00201149086011480068B8
:1018500040F400300F49086000BF00BF00BFBFF375
:101860004F8F00BF00BF00BF00BF00BF00BFBFF36E
:101870006F8F00BF00BF00BF00BF06F0AFFC044881
:101880004C30006840F0040001494C31086010BD44
:1018900050EF00E014ED00E010B500241748006898
:1018A00020F040701549086008460068086004E0B0
:1018B000601CC4B2012007F05FFF4FF480510F4855
:1018C00000F0DEFD08B1642CF2DB642C01DB0120AA
:1018D00010BD002404E0601CC4B2012007F04CFFDE
:1018E0004FF48051054800F0CBFD08B9642CF2DBC1
:1018F000642C01DB0120EBE70020E9E70004024053
:1019000000B587B000BF0F48006840F002000D49E5
:1019100008600846006800F00200019000BF00BFA8
:10192000881402900120039004900320059002A9DE
:10193000054800F099FC00F073F8FFF7ADFF07B021
:1019400000BD0000303802400004024010B5002401
:1019500004E0601CC4B2012007F00EFF4FF4805178
:10196000104800F08DFD08B1642CF2DB002404E087
:10197000601CC4B2012007F0FFFE4FF480510948FB
:1019800000F07EFD08B9642CF2DB282007F0F4FE9D
:101990004FF48051034800F073FD08B1012010BDE1
:1019A0000020FCE70004024070B50024002506E09A
:1019B0006006040EFFF7CAFF0443681CC5B2082D79
:1019C000F6DB204670BD7CB505460E4600F028F8D3
:1019D000FFF762FFF8B9002405E0FFF7E5FF0DF817
:1019E0000400601CC4B2052CF7DB9DF800009DF8D4
:1019F000011008449DF8021008449DF803100844A3
:101A00009DF80410884208D19DF8000030709DF8C0
:101A10000200287001E001207CBD0020FCE70000EE
:101A200010B50E48006820F040700C490860084668
:101A3000006840F08070086000228914074800F0B8
:101A40002BFD142007F08CFE01221103034800F047
:101A500023FD1E2007F090FE10BD00000004024090
:101A60007047000070B504461D460023B5F5804F51
:101A700013D154F822300C480340D1E9000640EA63
:101A800006108E6840EA06208E8940EA06408E697C
:101A90003043034344F8223003E06FF0704044F8D1
:101AA0002200002070BD00000000F0CF10B50246FB
:101AB0000023086852F820301B480340D1E9010494
:101AC0002043CC6820430C6920434C6920438C6937
:101AD0002043CC6920430C6A20434C6A20438C6A23
:101AE0002043CC6A20430C6B20438C6B20434C6B0F
:101AF000204303438868082801D143F04003086865
:101B000042F82030086BB0F5801F05D1086818B185
:101B100010680C6B20431060086818B110684C6B9B
:101B200020431060002010BD8004C0FF30B5034684
:101B300014460022601C53F8202002F04042D1E9F4
:101B4000000540EA05108D6840EA05208D8940EACD
:101B50000545088A401E45EA0055087D801E45EA75
:101B600000608D6928430243601C43F820201868F8
:101B700000F4801038B1586820F47002088A401EC2
:101B800042EA00525A60002030BD30B502460023C0
:101B900000240868012816D013686FF30E03D1E9FA
:101BA00001052843CD6828430D6928434D69284322
:101BB0008D692843CD6928430D6A28434D6A28431F
:101BC0000343136019E0136823F4F843D1E90705D0
:101BD00028434D6A2843034354686FF30E04D1E948
:101BE00001052843CD6828430D6928434D692843E2
:101BF0008D692843044313605460002030BD0246C1
:101C0000506940EA4100506100207047F8B506462F
:101C10000C461546002000900027D4E90001084337
:101C2000A168491E40EA4110E16840EA4120009065
:101C30000098306100F036FC074609E0681C38B1B6
:101C400025B100F02FFCC01BA84201D90320F8BD2C
:101C5000B06900F020000028F0D100BFF7E70000D5
:101C600070B50346154600220024012D1FD09A6846
:101C700002F070420868401E4E68761E40EA061662
:101C80008868401E46EA0026C868401E46EA0036BC
:101C9000088A401E46EA0046888A401E46EA0056E8
:101CA000087E401E46EA006002439A6022E09A687D
:101CB00011480240C868401E0603888A401E46EA52
:101CC00000500243DC6804F070440868401E4E680F
:101CD000761E40EA06168868401E46EA0026088AF4
:101CE000401E46EA0046087E401E46EA0060044365
:101CF0009A60DC60002070BDFF0F0FFF00B587B059
:101D000000BF0F48006840F002000D490860084617
:101D1000006800F00200019000BF00BF08200290A0
:101D20000120039004900320059002A9054800F0CB
:101D30009BFA01221146034800F0AEFB07B000BD3C
:101D400030380240000402401FB5044600940120D0
:101D5000019007200290002003906946074800F098
:101D60003BF8064800F0ECF90A21044800F08AF933
:101D7000024800F00BF980B204B010BD84030220C9
:101D80002DE9F04107460C460025002608E03846BC
:101D9000FFF7DAFF0544052007F0E2FC701CC6B22D
:101DA000A642F4DBB5FBF4F080B2BDE8F0810000A0
:101DB00010B542F62F21092006F08AFB4FF4165089
:101DC0000AF018F81A210348FEF75DFC09F0FEFA44
:101DD00010BD00008000022018B5024600200090CF
:101DE00000BF92F83C00012801D1022018BD01205B
:101DF00082F83C0000BF0868092822D91068C06832
:101E00000B780A3B03EB43040723A3409843136872
:101E1000D860594B0868984207D11068C0680B7A9F
:101E200040EA03601368D8601FE00B780A3B03EBBD
:101E30004303886898401368DB6818431368D860C8
:101E400013E0106800690B7803EB43040723A340F9
:101E50009843136818610B7803EB43038868984034
:101E600013681B691843136818614868072817D25C
:101E70001068406B0B795B1E03EB83041F23A340A8
:101E8000984313685863088880B20B795B1E03EB94
:101E90008303984013685B6B18431368586331E001
:101EA00048680D2817D21068006B0B79DB1F03EB15
:101EB00083041F23A340984313681863088880B2E3
:101EC0000B79DB1F03EB8303984013681B6B1843EC
:101ED0001368186316E01068C06A0B790D3B03EBBA
:101EE00083041F23A34098431368D862088880B2F4
:101EF0000B790D3B03EB830398401368DB6A1843AF
:101F00001368D8621D4B1068984208D108681228DF
:101F100005D11B48006840F48000C3F80403174B48
:101F20001068984220D1144B0868984202D0086883
:101F3000112819D11248006840F40000104B1860B5
:101F40000D4B086898420FD10E4800680E4BB0FB4D
:101F5000F3F000EB80004000009002E00098401E8B
:101F6000009000980028F9D100BF002082F83C00C2
:101F700000BF00BF3AE7000012000010002001403F
:101F8000042301402C00022040420F000146086853
:101F9000C06C704770B5044600250CB9012070BDB7
:101FA0001549A06A884200D000BF206C30B90020DB
:101FB000606484F83C00204600F020F8206C00F0BB
:101FC000100088B9206C20F4885040F00200206492
:101FD0002046FFF767FB00206064206C20F00200C1
:101FE00040F00100206400E0012500BF002084F8DB
:101FF0003C0000BF2846D2E70100000F10B586B0B4
:10200000044600BF1D48006840F480701B4908600A
:102010000846006800F48070009000BF00BF00BF59
:1020200016481438006840F001001449143908605B
:102030000846006800F00100009000BF00BF2020AB
:102040000190032002900020039001A90C4800F0A9
:102050000BF90120019001A9094800F005F9402081
:10206000019001A9064800F0FFF88020019001A925
:10207000034800F0F9F806B010BD000044380240F3
:102080000000024070B504460D46002620688068B6
:1020900000F4806078B12068806800F4807050B1EE
:1020A000206C40F02000206400BF002084F83C0039
:1020B00000BF012070BD00F0F5F9064612E0681C73
:1020C00080B125B100F0EEF9801BA8420AD9206C3E
:1020D00040F00400206400BF002084F83C0000BFF2
:1020E0000320E7E72068006800F002000228E6D13C
:1020F0006FF0120021680860206C40F400702064CA
:102100002068806800F04050B8B9A069A8B920687C
:10211000C06A00F4700020B12068806800F480601C
:1021200058B9206C20F480702064206C00F480503A
:1021300018B9206C40F0010020640020BAE70000CC
:1021400008B501460020009000BF91F83C0001282E
:1021500001D1022008BD012081F83C0000BF0868C1
:10216000806800F00100A0B90868806840F00100B4
:102170000A6890602E4800682E4AB0FBF2F000EB2F
:102180004000009002E00098401E00900098002857
:10219000F9D10868806800F00100002845D0086C7B
:1021A00040F20162904340F480700864086840681F
:1021B00000F4806028B1086C20F4005040F4805096
:1021C0000864086C00F4805020B1486C20F00600D0
:1021D000486401E00020486400BF002081F83C0012
:1021E00000BF6FF022000A6810601348006800F01A
:1021F0001F0058B90868806800F04050A8B9086806
:10220000806840F080400A6890600EE00B4A0868E1
:1022100090420AD10868806800F0405028B90868E8
:10222000806840F080400A689060002092E70000DB
:102230002C00022040420F000423014000200140F6
:10224000014691F83500022803D08020486501201E
:102250007047052081F835000868006820F001000B
:102260000A6810600020F3E7F8B502460B4600212B
:1022700000250024002000BFE4E0012606FA01F555
:102280001E6806EA0504AC4271D15E68022E02D0D7
:102290005E68122E13D1CF0802F1200656F82700EF
:1022A0004E07F70E0F26BE40B0434F07FF0E1E69C4
:1022B000BE403043CF0802F1200646F827001068E0
:1022C0004F000326BE40B0431E7906F003064F00C0
:1022D000BE40304310605E68012E08D05E68022E5A
:1022E00005D05E68112E02D05E68122E13D1906860
:1022F0004F000326BE40B0434F00DE68BE4030436F
:102300009060506801268E40B0431E79C6F30016D7
:102310008E4030435060D0684F000326BE40B0432B
:102320004F009E68BE403043D0605E6806F0805625
:10233000B6F1805FA8D100BF444E366846F48046AF
:10234000424F3E603E46366806F48046009600BF27
:1023500000BF3F4E8F0856F827008E07370F0F2615
:10236000BE40B0433B4EB24202D100262EE068E0B0
:10237000394EB24201D1012628E0384EB24201D195
:10238000022623E0364EB24201D103261EE0354E2E
:10239000B24201D1042619E0334EB24201D10526E2
:1023A00014E0324EB24201D106260FE0304EB24266
:1023B00001D107260AE02F4EB24201D1082605E0DE
:1023C0002D4EB24201D1092600E00A268F073F0FA9
:1023D000BE4030431E4E8F0846F82700274E306817
:1023E000A0435E6806F48036B6F5803F00D12043F6
:1023F000224E3060361D3068A0435E6806F4003619
:10240000B6F5003F00D120431C4E361D3060361D0E
:102410003068A0435E6806F48016B6F5801F00D1D0
:102420002043164E08363060361D3068A0435E6883
:1024300006F40016B6F5001F00D120430F4E0C36EF
:102440003060491C1029FFF418AFF8BD4438024031
:102450000838014000000240000402400008024029
:10246000000C02400010024000140240001802401C
:10247000001C02400020024000240240003C0140B9
:10248000024613690B400BB1012000E000207047A9
:1024900042694A40426170470AB1816101E00B0420
:1024A00083617047014800687047000030000220D7
:1024B00002480068401C0149086070473000022053
:1024C00010B50848006840F400700649086005200F
:1024D00000F06CFA0F2000F007F800F01BFA002063
:1024E00010BD0000003C024070B50446074800687B
:1024F0004FF47A71B0FBF1F5284601F0ADFC0022F3
:102500002146501E00F014FA002070BD2C0002205D
:1025100070B504460E46154600BF94F8A000012889
:1025200001D1022070BD012084F8A00000BF02206C
:1025300084F8A10005EB850101EBC50204F1380127
:1025400001EB820034223146FEF76BF82A46314611
:10255000204605F0E7FB01202168486284F8A100CD
:1025600000BF002084F8A00000BF00BFDAE7000031
:1025700070B50446002500260CB9012070BD94F802
:10258000A10028B9002084F8A000204600F084F8BB
:10259000022084F8A1002068806920F07040216842
:1025A0008861D4E901010843E168084321690843CF
:1025B00021688969084321688861206880683549F5
:1025C000084021688860A08A050420688068A169A5
:1025D00029430843216888602068C0682D49084065
:1025E0002168C860A08B05042068C068216A29435F
:1025F00008432168C86020680069264908402168AE
:102600000861A08C050420680069A16A2943084379
:1026100021680861206840691E49084021684861B6
:10262000A08D050420684069216B29430843216877
:10263000486194F83500050294F8360006042068D5
:10264000C06A00F07F402168C86246EA050094F83D
:10265000341008432168C96A08432168C8622068A9
:10266000406B40F00400216848632068406B40F0F4
:102670000200216848632068806940F001002168F9
:1026800088610020C4F8A400012084F8A100002083
:1026900074E7000000F800F010B586B0044600BFF3
:1026A0004748006840F08060454908600846006877
:1026B00000F08060009000BF00BF00BF40481438A9
:1026C000006840F400003E4914390860084600687C
:1026D00000F40000009000BF00BF00BF0846006883
:1026E00040F0020008600846006800F00200009018
:1026F00000BF00BF00BF0846006840F0200008602F
:102700000846006800F02000009000BF00BF00BF36
:102710000846006840F0400008600846006800F085
:102720004000009000BF00BF00BF0846006840F0B6
:10273000800008600846006800F08000009000BF3C
:1027400000BF00BF0846006840F48070086008467B
:10275000006800F48070009000BF00BF202001904E
:102760000120029003900320049001A91548FFF76F
:102770007BFD4FF4806001900220029000200390C6
:10278000032004900E20059001A90F48FFF76CFD6F
:102790004FF40C60019001A90C48FFF765FD4FF460
:1027A0007E40019001A90A48FFF75EFD40F2F76004
:1027B000019001A90748FFF757FD06B010BD0000C2
:1027C0004438024000040240001402400018024055
:1027D000001C0240002002402DE9F04104460E4654
:1027E0001746984600BF94F8A000012802D10220A5
:1027F000BDE8F081012084F8A00000BF022084F829
:10280000A10008EB880000EBC80104F1380000EBE0
:1028100081052E60A86A30446860AF60E86A384479
:10282000E86042462946204605F07CFA01202168EE
:10283000486284F8A10000BF002084F8A00000BF17
:1028400000BFD5E72DE9F04105460E4617469846EC
:1028500000BF95F8A000012802D10220BDE8F08158
:10286000012085F8A00000BF022085F8A10008EB38
:10287000880000EBC80105F1380000EB810400205E
:1028800020602068304460600020A060A068384468
:10289000E060A662E76242462146284605F042FA19
:1028A00001202968486285F8A10000BF002085F852
:1028B000A00000BF00BFD1E74178154A1160017840
:1028C000F9B1121D41681160017B0907C27A41EA22
:1028D0000261827A41EAC241427B41EA8241827BC3
:1028E00041EA4241C27B41EA0241427A41EA022185
:1028F000027A41EA420102781143054A0832116026
:1029000005E00021024A121D1160121D116070477E
:1029100098ED00E0704700BF00F01F0201219140D8
:102920004209920002F1E022C2F8001100BF704794
:102930002DE9F05F80460D461646002705F0CAFBDC
:10294000074639462A46334601F00700C0F1070A18
:10295000BAF1040F02D94FF0040A01E0C0F1070AEE
:10296000D14600F1040ABAF1070F02D24FF0000A73
:1029700001E0A0F1030AD4464FF0010A0AFA09FA6D
:10298000AAF1010A0AEA020A0AFA0CFA4FF0010B4C
:102990000BFA0CFBABF1010B0BEA030B4AEA0B043D
:1029A0002146404605F09EFBBDE8F09F00BF00F0C9
:1029B0000702064B19684FF6FF031940044B0B43FF
:1029C00043EA0221014B196000BF70470CED00E0A3
:1029D0000000FA0538B5002400BF2048006840F028
:1029E00080501E4908600846006800F08050009042
:1029F00000BF00BF1A48006840F4803018490860E2
:102A0000FFF750FD044607E0FFF74CFD001BB0F553
:102A10007A7F01D9032038BD1148406800F4803026
:102A2000B0F5803FF0D10E48006840F400300C490A
:102A30000860FFF737FD044607E0FFF733FD001B92
:102A4000B0F57A7F01D90320E5E70548406800F436
:102A50000030B0F5003FF0D10020DCE74038024004
:102A6000007000402DE9F8430446002600250027A9
:102A7000A846A946207800F0010088B100BFFE48B2
:102A8000006820F40000FC49086008460068616B9B
:102A90000843F949086000BF606B08B94FF00108AE
:102AA000206800F40020B0F5002F13D1F2488430E4
:102AB000006820F44010E16B0843EF49843108605E
:102AC000E06BB0F5801F01D14FF00108E06B08B951
:102AD0004FF00109206800F48010B0F5801F13D179
:102AE000E5488430006820F44000216C0843E24946
:102AF00084310860206CB0F5800F01D14FF00108DF
:102B0000206C08B94FF00109206800F08070B0F126
:102B1000807F01D14FF00108207800F020002028AC
:102B200070D100BFD4483830006840F08050D2499E
:102B3000383108600846006800F08050009000BFFF
:102B400000BFCE48006840F48070CC490860FFF7B1
:102B5000A9FC064607E0FFF7A5FC801B642802D904
:102B60000320BDE8F883C548006800F480700028A1
:102B7000F1D0C1486830006800F4407585B3208EFC
:102B800000F44070A8422BD0BB486830006820F4A5
:102B90004075B9486830006840F48030B649683103
:102BA00008600846006820F4803008600846056028
:102BB000006800F0010098B1FFF774FC064608E0D9
:102BC000FFF770FC801B41F28831884201D9032055
:102BD000C7E7A94868300068C0F340000028EFD07C
:102BE00000BF208E00F44070B0F5407F0BD1A248AA
:102BF000006820F4F810A24A216B114008439E4956
:102C0000086006E010E09C48006820F4F8109A493B
:102C10000860994868300068218EC1F30B010843B1
:102C200095496831086000BF207800F01000102836
:102C300010D100BF90488430006820F080708E4929
:102C40008431086008460068A16B08438A498431D2
:102C5000086000BF208800F48040B0F5804F09D1A3
:102C600085488830006820F44030616E084382490E
:102C700088310860208800F40040B0F5004F09D189
:102C80007D488830006820F44020A16E08437A49CE
:102C900088310860206800F48030B0F5803F09D1A9
:102CA00075488830006820F44010E16E084372498E
:102CB00088310860206800F40030B0F5003F09D189
:102CC0006D488830006820F44000216F08436A494D
:102CD00088310860207800F04000402809D166481B
:102CE0008830006820F00300616C08436249883135
:102CF0000860207800F08000802809D15E48883084
:102D0000006820F00C00A16C08435B498831086022
:102D1000208800F48070B0F5807F09D15648883053
:102D2000006820F03000E16C0843534988310860A6
:102D3000208800F40070B0F5007F09D14E4888303B
:102D4000006820F0C000216D08434B4988310860BD
:102D5000208800F48060B0F5806F09D14648883043
:102D6000006820F44070616D084343498831086071
:102D7000208800F40060B0F5006F09D13E4888302B
:102D8000006820F44060A16D08433B498831086029
:102D9000208800F48050B0F5805F09D13648883033
:102DA000006820F44050E16D0843334988310860E1
:102DB000208800F40050B0F5005F09D12E4888301B
:102DC000006820F44040216E08432B498831086098
:102DD000206800F48000B0F5800F09D126488830C3
:102DE000006820F08060A16F0843234988310860A3
:102DF000206800F40010B0F5001F0FD11E48883085
:102E0000006820F00060E16F08431B4988310860CA
:102E1000E06FB0F1006F01D14FF00109207800F0B0
:102E20000800082801D14FF00109206800F4802033
:102E3000B0F5802F09D110488830006820F040702C
:102E4000616F08430C4988310860206800F4000075
:102E5000B0F5000F0AD108488830006820F0805093
:102E6000D4F880100843044988310860206800F0D5
:102E70008060B0F1806F05E00838024000700040CB
:102E8000FFFCFF0F08D1FE48006820F00050D4F886
:102E900084100843FA490860206800F00060B0F12F
:102EA000006F0AD1F648001F006820F00070D4F8C7
:102EB00088100843F249091F0860206800F080501C
:102EC000B0F1805F0AD1EE48001F006820F08060FA
:102ED000D4F88C100843EA49091F0860B8F1010FC3
:102EE00003D02068B0F1007F7DD1E54890380068BC
:102EF00020F08060E24990390860FFF7D3FA064677
:102F000006E0FFF7CFFA801B642801D9032028E6EA
:102F1000DB4890380068C0F3C0600028F1D1207809
:102F200000F00100F0B3606BE0BBD5480C380068DE
:102F300000F440304FF4403191FAA1F1B1FA81F13F
:102F400020FA01F5CE480C38006800F070604FF0B0
:102F5000706191FAA1F1B1FA81F120FA01F747F617
:102F6000C07191FAA1F1B1FA81F1606888404FF423
:102F7000403191FAA1F1B1FA81F105FA01F108436A
:102F80004FF0706191FAA1F1B1FA81F107FA01F104
:102F900008434FF0E04292FAA2F2B2FA82F2A1683C
:102FA000914000E003E00843B5490C39086020680F
:102FB00000F40020B0F5002F03D1E06BB0F5801FC6
:102FC00009D0206800F48010B0F5801F50D1206C2B
:102FD000B0F5800F4CD1AA480C38006800F440309E
:102FE0004FF4403100E0CFE091FAA1F1B1FA81F164
:102FF00020FA01F5A2480C38006800F0E0404FF0DC
:10300000E04191FAA1F1B1FA81F120FA01F747F616
:10301000C07191FAA1F1B1FA81F1606888404FF472
:10302000403191FAA1F1B1FA81F105FA01F10843B9
:103030004FF0706292FAA2F2B2FA82F2E168914025
:1030400008434FF0E04191FAA1F1B1FA81F107FA9A
:1030500001F108438A490C3908608948001F00685B
:1030600020F01F00616A491E08438549091F086056
:10307000206800F08070B0F1807F3FD180480C382C
:10308000006800F070604FF0706191FAA1F1B1FA40
:1030900081F120FA01F57A480C38006800F0E04030
:1030A0004FF0E04191FAA1F1B1FA81F120FA01F774
:1030B00047F6C07191FAA1F1B1FA81F160688840D8
:1030C0004FF4403292FAA2F2B2FA82F221699140B0
:1030D00008434FF0706191FAA1F1B1FA81F105FA5C
:1030E00001F108434FF0E04191FAA1F1B1FA81F109
:1030F00007FA01F1084362490C390860206800F0C2
:103100000070B0F1007F25D147F6C07191FAA1F1AE
:10311000B1FA81F1606888404FF4403292FAA2F22D
:10312000B2FA82F22169914008434FF0706292FA3C
:10313000A2F2B2FA82F2E168914008434FF0E04215
:1031400092FAA2F2B2FA82F2A168914008434C4985
:103150000C3908604A489038006840F0806048495F
:1031600090390860FFF79EF9064606E0FFF79AF9E6
:10317000801B642801D90320F3E44148903800689B
:10318000C0F3C0600028F1D0B9F1010F69D13C480B
:103190009038006820F08050394990390860FFF776
:1031A00081F9064606E0FFF77DF9801B642801D906
:1031B0000320D6E4324890380068C0F340700028FD
:1031C000F1D1206800F40020B0F5002F01D1E06BB0
:1031D00038B1206800F48010B0F5801F4FD1206C0A
:1031E000F0BB27480838006800F440304FF4403105
:1031F00091FAA1F1B1FA81F120FA01F520480838DD
:10320000006800F0E0404FF0E04191FAA1F1B1FA1E
:1032100081F120FA01F747F6C07191FAA1F1B1FAF4
:1032200081F1606988404FF4403191FAA1F1B1FA1F
:1032300081F105FA01F108434FF0706292FAA2F2AF
:10324000B2FA82F2A169914008434FF0E04191FA4D
:10325000A1F1B1FA81F107FA01F10843084901E04F
:103260000DE0BBE008390860081D006820F4F85143
:10327000A06A401E41EA00200149091F086001E0E0
:1032800090380240206800F40010B0F5001F40D1D3
:10329000E06FB0F1006F3CD15148006800F0706001
:1032A0004FF0706191FAA1F1B1FA81F120FA01F5C4
:1032B0004B48006800F0E0404FF0E04191FAA1F186
:1032C000B1FA81F120FA01F747F6C07191FAA1F144
:1032D000B1FA81F1606988404FF4403292FAA2F26B
:1032E000B2FA82F2216A914008434FF0706191FA7C
:1032F000A1F1B1FA81F105FA01F108434FF0E04183
:1033000091FAA1F1B1FA81F107FA01F108433449C8
:103310000860207800F00800082845D1304800688F
:1033200000F070604FF0706191FAA1F1B1FA81F193
:1033300020FA01F52A48006800F440304FF440318B
:1033400091FAA1F1B1FA81F120FA01F747F6C071C3
:1033500091FAA1F1B1FA81F1606988404FF44031EE
:1033600091FAA1F1B1FA81F107FA01F108434FF0A6
:10337000706191FAA1F1B1FA81F105FA01F1084306
:103380004FF0E04292FAA2F2B2FA82F2E169914081
:10339000084313490860081D006820F44030E16AC2
:1033A00008430F49091D08600D488838006840F03F
:1033B00080500B4988390860FFF774F8064606E02C
:1033C000FFF770F8801B642801D903209FE50448AB
:1033D00088380068C0F340700028F1D0002096E5DE
:1033E0008838024070B504460D46002666480068DD
:1033F00000F00F00A8420ED26348006820F00F00D2
:103400002843614908600846006800F00F00A842A0
:1034100001D0012070BD207800F00200022807D101
:103420005A48006820F0F000A16808435749086036
:10343000207800F00100002860D06068012807D1E2
:10344000524808380068C0F34040A0B90120E1E7C5
:103450006068022807D14D4808380068C0F3406012
:1034600048B90120D6E7494808380068C0F3400051
:1034700008B90120CEE74548006820F003006168E4
:10348000084342490860FFF70DF8064660680128C6
:1034900010D108E0FFF706F8801B41F2883188421E
:1034A00001D90320B6E73948006800F00C00042871
:1034B000F0D123E06068022810D108E0FEF7F2FFA7
:1034C000801B41F28831884201D90320A2E72F48AE
:1034D000006800F00C000828F0D10FE008E0FEF7CB
:1034E000E1FF801B41F28831884201D9032091E736
:1034F0002648006800F00C000028F0D1224800683F
:1035000000F00F00A8420ED91F48006820F00F00FD
:1035100028431D4908600846006800F00F00A842D3
:1035200001D0012076E7207800F00400042807D1BC
:103530001648006820F4E050E16808431349086029
:10354000207800F00800082808D11048006820F40E
:103550006040216940EAC1000C49086000F04EF863
:103560000A49096801F0F001F02292FAA2F2B2FAD7
:1035700082F2D140064A515CC840064908600F20DB
:10358000FEF7B2FF002045E7003C02400838024049
:1035900052C600082C000220014800687047000055
:1035A0002C00022000B5FFF7F7FF0749096801F476
:1035B000E0514FF4E05292FAA2F2B2FA82F2D14014
:1035C000024A515CC84000BD0838024062C600088B
:1035D00000B5FFF7E1FF0749096801F460414FF4C6
:1035E000604292FAA2F2B2FA82F2D140024A515CEF
:1035F000C84000BD0838024062C6000870B500210E
:10360000002200230020274C246804F00C0424B17D
:10361000042C04D0082C41D103E0234840E0234887
:103620003EE0204C241F246804F03F011D4C241F61
:10363000246804F4800484B11C4CB4FBF1F5194CEB
:10364000241F246847F6C076344096FAA6F6B6FAE8
:1036500086F6F44005FB04F20FE0134CB4FBF1F5E1
:10366000104C241F246847F6C076344096FAA6F61C
:10367000B6FA86F6F44005FB04F20A4C241F2468CF
:1036800004F440344FF4403595FAA5F5B5FA85F5C4
:10369000EC40641C6300B2FBF3F001E0024800BFA1
:1036A00000BF70BD083802400024F40040787D015E
:1036B00038B504460025207800F00100002871D0BC
:1036C000FE48006800F00C0004280DD0FB4800689C
:1036D00000F00C00082813D1F848001F006800F41F
:1036E0008000B0F5800F0BD1F44808380068C0F3B3
:1036F0004040002869D06068002866D1012038BDAC
:1037000000BF6068B0F5803F08D1EC480838006819
:1037100040F48030E949083908602EE0606868B9F3
:10372000E6480838006820F48030E4490839086029
:103730000846006820F4802008601EE06068B0F54C
:10374000A02F0DD1DD480838006840F48020DB4907
:10375000083908600846006840F4803008600CE0D2
:10376000D6480838006820F48030D4490839086009
:103770000846006820F48020086000BF606890B1AF
:10378000FEF790FE054606E0FEF78CFE401B64281F
:1037900001D90320B3E7C94808380068C0F34040A6
:1037A0000028F1D011E0FEF77DFE054606E0FEF7A9
:1037B00079FE401B642801D90320A0E7BF480838E0
:1037C0000068C0F340400028F1D1207800F00200EA
:1037D000022873D1B948006800F00C0058B1B7480E
:1037E000006800F00C00082821D1B448001F0068D0
:1037F00000F48000D8B9B14808380068C0F3400030
:1038000020B1E068012801D0012078E7AB480838F2
:10381000006820F0F800F82292FAA2F2B2FA82F2DE
:10382000216991400843A5490839086046E0E068ED
:1038300050B3A2480838006840F001009F49083999
:103840000860FEF72FFE054606E0FEF72BFE401B44
:10385000022801D9032052E7984808380068C0F3CD
:1038600040000028F1D095480838006820F0F800A2
:10387000F82292FAA2F2B2FA82F221699140084348
:103880008E490839086019E08C480838006820F033
:1038900001008A4908390860FEF704FE054606E083
:1038A000FEF700FE401B022801D9032027E78348CA
:1038B00008380068C0F340000028F1D1207800F0FB
:1038C0000800082836D16069D0B17C486C300068A7
:1038D00040F0010079496C310860FEF7E3FD0546D0
:1038E00006E0FEF7DFFD401B022801D9032006E7B2
:1038F00072486C300068C0F340000028F1D019E035
:103900006E486C30006820F001006C496C31086032
:10391000FEF7C8FD054606E0FEF7C4FD401B022881
:1039200001D90320EBE665486C300068C0F3400025
:103930000028F1D1207800F00400042871D100BFE4
:103940005E483830006840F080505C49383108608B
:103950000846006800F08050009000BF00BF584843
:10396000006840F4807056490860FEF79BFD0546EC
:1039700006E0FEF797FD401B642801D90320BEE650
:103980004F48006800F480700028F2D000BFA068A3
:10399000012808D149486830006840F001004749D3
:1039A000683108602DE0A06868B944486830006854
:1039B00020F001004149683108600846006820F0A5
:1039C000040008601DE0A06805280DD13B48683060
:1039D000006840F004003949683108600846006812
:1039E00040F0010008600CE034486830006820F0C6
:1039F00001003249683108600846006820F0040080
:103A0000086000BFA068A8B1FEF74CFD054609E0BC
:103A1000FEF748FD401B41F28831884202D903205D
:103A20006DE61BE0254868300068C0F340000028C0
:103A3000EED013E0FEF736FD054608E0FEF732FD56
:103A4000401B41F28831884201D9032057E61B48C8
:103A500068300068C0F340000028EFD1A06988B347
:103A60001648006800F00C00082873D0A0690228EE
:103A700064D112480838006820F080700F49083976
:103A80000860FEF70FFD054606E0FEF70BFD401B44
:103A9000022801D9032032E6084808380068C0F33C
:103AA00040600028F1D1D4E90701084347F6C0720D
:103AB00092FAA2F2B2FA82F2616A04E00838024095
:103AC0000070004058E0914008430122A16AC2EB17
:103AD00051014FF4403292FAA2F2B2FA82F29140CE
:103AE00008434FF0706292FAA2F2B2FA82F2E16AEF
:103AF000914008434FF0E04292FAA2F2B2FA82F209
:103B0000216B914008431D490860081F006840F080
:103B10008070091F0860FEF7C5FC054606E0FEF749
:103B2000C1FC401B022801D90320E8E51348001F0F
:103B30000068C0F340600028F1D01DE00F48001F6E
:103B4000006820F080700D49091F0860FEF7AAFC8C
:103B5000054607E00EE0FEF7A5FC401B022801D950
:103B60000320CCE50548001F0068C0F34060002832
:103B7000F1D101E00120C2E50020C0E50438024097
:103B800070B504460D460CB9012070BD94F82C00A8
:103B900028B9002084F82D00204600F011F80220FA
:103BA00084F82C00211D2068FDF7EFFF2946D4E999
:103BB0000002FEF755F8012084F82C000020E4E70D
:103BC00010B586B0044600BF3E48006840F00100D2
:103BD0003C4908600846006800F00100009000BF02
:103BE00000BF00BF37480838006840F0040035497E
:103BF000083908600846006800F00400009000BF23
:103C000000BF00BF0846006840F008000860084692
:103C1000006800F00800009000BF00BF00BF084629
:103C2000006840F0100008600846006800F01000CE
:103C3000009000BF00BF00BF0846006840F02000B1
:103C400008600846006800F02000009000BF00BF38
:103C500000BF0846006840F0400008600846006861
:103C600000F04000009000BF00BF0D200190022036
:103C7000029001200390032004900C20059001A9DC
:103C80001148FEF7F1FA4CF20370019001A90F48B8
:103C9000FEF7EAFA4FF68370019001A90C48FEF78F
:103CA000E3FA4FF63F00019001A90A48FEF7DCFA5B
:103CB00048F23710019001A90748FEF7D5FA06B07F
:103CC00010BD00003838024000080240000C0240DD
:103CD00000100240001402400018024070B5044673
:103CE0000D4694F82C00022800D170BD022084F803
:103CF0002C0029462068FDF782FF012084F82C0063
:103D00000020F2E770B504460D46164694F82C00E4
:103D1000022800D170BD022084F82C0032462946CA
:103D20002068FDF773FF2868022803D1052084F876
:103D30002C0002E0012084F82C000020EAE770B596
:103D400004460E4615460CB9012070BD94F8450096
:103D500028B9002084F84400204600F01DF804F142
:103D600008012068FDF7A2FE3146A2682068FDF731
:103D7000DDFE2946E36AD4E90102FDF773FEA1687E
:103D8000206850F8210040F00100A268216841F845
:103D900022000020D9E7000010B586B0044600BF1D
:103DA0002048006840F001001E490860084600688D
:103DB00000F00100009000BF00BF00BF19480838A4
:103DC000006840F008001749083908600846006894
:103DD00000F00800009000BF00BF00BF0846006868
:103DE00040F0100008600846006800F010000090E5
:103DF00000BF00BF4EF2B37001900220029001207C
:103E00000390032004900C20059001A90648FEF7BA
:103E10002BFA4FF68070019001A90448FEF724FAAE
:103E200006B010BD38380240000C024000100240BD
:103E3000042808D14FF0E021096941F004014FF056
:103E4000E022116107E04FF0E021096921F004014F
:103E50004FF0E0221161704770B504462546681E98
:103E6000B0F1807F01D301200FE0681E4FF0E02108
:103E700048610F214FF0FF3004F034F900204FF07B
:103E8000E021886107200861002070BD10B504465C
:103E90000CB9012010BD94F8390010B9204600F08B
:103EA0000DF8022084F83900211D206804F026FB5B
:103EB000012084F839000020ECE7000038B5044602
:103EC0000D492068884215D100BF0C48006840F0B9
:103ED00002000A4908600846006800F002000090ED
:103EE00000BF00BF032201211D20FEF721FD1D2080
:103EF000FEF711FD38BD00000004004040380240CC
:103F000001460868C06840F001000A68D06008688F
:103F1000006840F001000A68106000207047704798
:103F20002DE9F04104462068C569206806682068CC
:103F3000876805F00F08B8F1000F0AD105F02000DE
:103F400038B106F0200020B1204604F024FCBDE882
:103F5000F081B8F1000F79D040F20110384000280C
:103F600074D005F0010048B106F4807030B1012032
:103F700021680862E06E40F00100E06605F0020092
:103F800048B107F0010030B1022021680862E06EFC
:103F900040F00400E06605F0040048B107F00100BD
:103FA00030B1042021680862E06E40F00200E06653
:103FB00005F0080060B106F0200010B907F001001C
:103FC00030B1082021680862E06E40F00800E06629
:103FD000E06E58B305F0200028B106F0200010B1C3
:103FE000204604F0D8FBE06E00F0080020B92068FD
:103FF000806800F0400018B3204604F0ACFB206855
:10400000806800F04000B8B12068806820F040006F
:1040100021688860606E50B11748616E0865606EF7
:10402000FEF70EF910B1606E016D88470DE0204675
:10403000FFF775FF09E009E02046FFF770FF04E095
:104040002046FFF76CFF0020E06680E705F0800067
:1040500030B106F0800018B1204604F0A7FD76E7E5
:1040600005F0400030B106F0400018B1204604F0E1
:1040700082FB6CE700BF6AE73F87000810B5044683
:104080000CB9012010BDA06900B100E000BF94F898
:10409000690028B9002084F86800204600F02AF85A
:1040A000242084F869002068006820F0010021685D
:1040B0000860204604F0B4FB012800D1E2E7606A02
:1040C00010B1204604F08CFA2068406820F490403B
:1040D000216848602068806820F02A002168886094
:1040E0002068006840F0010021680860204604F064
:1040F000ECFAC7E710B586B0044623492068884229
:1041000040D100BF2148006840F001001F4908600D
:104110000846006800F00100009000BF00BF00BF2B
:104120001A481430006840F0100018491431086033
:104130000846006800F01000009000BF00BF48155E
:104140000190022002900120039002200490072099
:10415000059001A90E48FEF787F84FF480600190A2
:1041600001A90B48FEF780F82068006840F02000A5
:10417000216808602520FEF7CEFB0322114625208A
:10418000FEF7D6FB06B010BD0010014030380240EB
:10419000000002402DE9F84F04460D4616469946A8
:1041A0004FF0000A94F86A0020287AD105B116B9B8
:1041B0000120BDE8F88F00BF94F86800012801D104
:1041C0000220F6E7012084F8680000BF0020583480
:1041D00060612220A074FEF765F982462680668021
:1041E000583C00BFA068B0F5805F0AD1206920B9B3
:1041F00040F2FF10A4F85C001CE0FF20A4F85C0073
:1042000018E0A06848B9206918B9FF20A4F85C003C
:1042100010E07F20A4F85C000CE0A068B0F1805FA3
:1042200008D1206918B97F20A4F85C0002E03F2083
:10423000A4F85C0000BFB4F85C8024E0B4F85A0035
:10424000401EA4F85A005346002220212046CDF8F3
:10425000009004F0E0FC08B10320AAE7A068B0F5E4
:10426000805F09D1206938B92F462068406A00EA8A
:1042700008003880AD1C06E02068406A08F0FF01A5
:10428000084005F8010BB4F85A000028D6D12020C8
:1042900084F86A0000BF002084F8680000BF88E747
:1042A000FFE7022085E770472DE9F84304460D46F5
:1042B00016461F464FF0000994F86900202854D193
:1042C00005B116B90120BDE8F88300BF94F8680075
:1042D000012801D10220F6E7012084F8680000BF20
:1042E00000205034E06121206076FEF7DBF8814643
:1042F00026806680503C21E0B4F85200401EA4F8AD
:1043000052004B46002280212046009704F083FC97
:1043100008B10320D7E7A068B0F5805F0AD1206913
:1043200040B9A846B8F80000C0F3080021688862C8
:10433000AD1C03E015F8010B21688862B4F8520047
:104340000028D9D14B46002240212046009704F096
:1043500062FC08B10320B6E7202084F8690000BFA2
:10436000002084F8680000BFADE70220ABE770478B
:1043700000BFFEE710B5002210211248FEF78CF8AE
:104380001048006820F440600E4908600846006844
:1043900040F480600860002220210A48FEF77CF883
:1043A000022005F0E9F9012210210648FEF774F811
:1043B000022005F0E1F9002210210248FEF76CF816
:1043C00010BD0000001C024000B587B000BF1248BD
:1043D000006840F08000104908600846006800F05E
:1043E0008000019000BF00BF3020029001200390A8
:1043F00004900220059002A90848FDF735FF01222C
:1044000020210648FEF748F8012210210348FEF754
:1044100043F807B000BD000030380240001C0240E5
:1044200010B5002210211248FEF736F81048006837
:1044300020F440600E4908600846006840F480603F
:104440000860012220210A48FEF726F8022005F024
:1044500093F9012210210648FEF71EF8022005F00C
:104460008BF9002210210248FEF716F810BD00005B
:10447000001C024070B5054600241848006820F46E
:1044800040601649086008460068086000261AE087
:10449000002210211148FDF7FFFF022005F06CF902
:1044A000012210210D48FDF7F7FF6006040E2021C0
:1044B0000A48FDF7E5FF08B1601CC4B2012005F011
:1044C0005BF9701CC6B2082EE2DB15B9FFF7A8FF36
:1044D00001E0FFF74FFF204670BD0000001C0240C6
:1044E00070B504461C48006820F440601A49086012
:1044F0000846006840F480600860002210211648D9
:10450000FDF7CAFF002523E0E00928B101222021A0
:104510001148FDF7C1FF04E0002220210E48FDF7FD
:10452000BBFF6006040E022005F026F901221021CF
:104530000948FDF7B1FF022005F01EF90022102105
:104540000548FDF7A9FF022005F016F9681CC5B261
:10455000082DD9DB70BD0000001C024010B51348C7
:10456000006820F44060114908600846006840F483
:1045700080600860012220210C48FDF78DFF012298
:1045800010210A48FDF788FF042005F0F5F8002205
:1045900020210648FDF780FF042005F0EDF80022F9
:1045A00010210248FDF778FF10BD0000001C0240FA
:1045B00010B51348006820F44060114908600846AF
:1045C000006840F480600860002210210C48FDF76C
:1045D00063FF002220210A48FDF75EFF042005F05A
:1045E000CBF8012210210648FDF756FF042005F004
:1045F000C3F8012220210248FDF74EFF10BD000044
:10460000001C024010B500241748006820F44060E8
:1046100015490860084600680860012220211248F8
:10462000FDF73AFF012005F0A7F8012210210E48FE
:10463000FDF732FF012005F09FF807E0601CC4B2CF
:10464000FA2C03DDFFF7B4FF012010BD202106483E
:10465000FDF716FF0028F1D1002210210248FDF7D6
:104660001BFF0020F1E70000001C024000B587B0EE
:1046700000BF2448006840F0010022490860084655
:10468000006800F00100019000BF00BF00BF0846B5
:10469000006840F0040008600846006800F004006C
:1046A000019000BF00BF00BF0846006840F08000D6
:1046B00008600846006800F08000019000BF00BF5D
:1046C0000120029000200390022004900320059016
:1046D00002A90D48FDF7C8FD4FF4005002900020DC
:1046E0000390012004900320059002A90748FDF7DC
:1046F000BBFD0C20029002A90548FDF7B5FD07B0EF
:1047000000BD0000303802400000024000080240B6
:10471000001C024010B50446012C01D12D4908703F
:104720002C480078002839D008212B48FDF7A8FE36
:1047300080B104212848FDF7A3FE58B14FF4005181
:104740002648FDF79DFE28B101212548FDF798FE7A
:10475000012823D10A2005F003F800201D49087024
:1047600008211D48FDF78CFE08B9012010BD042169
:104770001948FDF785FE08B90220F7E74FF400510C
:104780001648FDF77DFE08B90320EFE70121144824
:10479000FDF776FE01281BD10420E7E708210E482B
:1047A000FDF76EFE012813D104210B48FDF768FECA
:1047B00001280DD141030948FDF762FE012807D108
:1047C00001210748FDF75CFE10B90120014908707E
:1047D0000020CBE768000220001C024000080240D5
:1047E0000000024070B5044600260D4805880D48BB
:1047F000006818B1204602F0B3FF0FE00848408877
:1048000045430021084602F089FD02F06BFF0026B7
:1048100002E005490C80761CAE42FAD370BD000060
:1048200054020220640302200000086010B5044610
:104830005C4884715C48006850B1204602F0B6FFC5
:104840005948C08A574908805748008B488010BD96
:10485000002C51D1F020534908804FF4A0704880BB
:104860000846808849F24131884205D04D48808809
:1048700045F21031884214D12C204A4908812A205F
:1048800048812B2088810846808845F21031884273
:1048900006D14FF4A070434908804FF4F07048806F
:1048A0007BE04048808845F21051884210D14FF497
:1048B00030503C4908814FF4285048814FF42C5027
:1048C00088814FF4F07008804FF44870488064E0AD
:1048D0003448808841F6631188425ED12C203149EA
:1048E00008812B2048812A2088814FF4F0700880AD
:1048F0004FF44870488050E04FF4A0702949088078
:10490000F02048800846808849F24131884205D02D
:104910002448808845F21031884207D12C20214953
:1049200008812A2048812B20888129E01D48808821
:1049300045F21051884210D14FF430501949088186
:104940004FF4285048814FF42C5088814FF4487020
:1049500008804FF4F070488012E01248808841F6D9
:10496000631188420CD12C200E4908812A204881ED
:104970002B2088814FF4487008804FF4F0704880F5
:104980000848808845F21031884206D14FF4F07013
:10499000044908804FF4A0704880002002F084FB96
:1049A00000BF54E7540202206403022070B504469D
:1049B0000D4616464348006828B13246294620462F
:1049C00002F00AFF70BD4048808849F241318842B8
:1049D00005D03D48808845F21031884214D13A49CB
:1049E000488902F073FE201202F064FEE0B202F089
:1049F00061FE3549888902F069FE281202F05AFEEC
:104A0000E8B202F057FE54E02F48808845F210517A
:104A1000884220D12C49488902F058FE201202F029
:104A200049FE29494989491C88B202F04FFEE0B28B
:104A300002F040FE2449888902F048FE281202F064
:104A400039FE21498989491C88B202F03FFEE8B24B
:104A500002F030FE2DE01C48808841F66311884248
:104A600027D11948807920B917480088401E001BBB
:104A700084B21549488902F029FE201202F01AFE7C
:104A8000E0B202F017FE201202F014FEE0B202F0D3
:104A900011FE0D49888902F019FE281202F00AFE63
:104AA000E8B202F007FE281202F004FEE8B202F0BB
:104AB00001FE0548008905490880891C0E8000BF59
:104AC00080E700006403022054020220FEFF07601A
:104AD0002DE9F84F05460E4617469846DDF8289012
:104AE0004FF0000B1448006840B143463A46314647
:104AF0002846CDF8009002F097FE1BE0781B401C82
:104B00001FFA80FB344613E02146284602F006FCDB
:104B100002F0E8FD4FF0000A06E00849A1F8009015
:104B20000AF101001FFA80FADA45F6DB601C84B254
:104B30004445E9DDBDE8F88F640302200000086009
:104B400000B595B003F084F8FE4988800846808857
:104B500018B102F00DFF02F0F0B900BFFA4800688A
:104B600040F00200F84908600846006800F00200C2
:104B7000019000BF00BF20201090012011901290E2
:104B80000320139010A9F148FDF76EFB02F00CFA18
:104B90004FF02040EE490860EE48486000208860F1
:104BA0000021EB48C1600161102141610021816158
:104BB000C16101624FF480514162002181624FF472
:104BC0008041C1620021016341634FF48011816320
:104BD0001120099000200A9055200B9000200F9082
:104BE00015200290002003901520049000200890CA
:104BF00002AA09A9D648FFF7A2F8322004F0B0FDB6
:104C0000D32002F063FD02F01DFACE49888002F045
:104C100019FACC49888002F015FACA4988800846FA
:104C200080884FF6FF7101EA0020C649888002F0B3
:104C300009FAC44989880843C2498880084680889F
:104C400049F24131884278D0D42002F03FFD02F091
:104C5000F9F9BC49888002F0F5F9BA49888002F078
:104C6000F1F9B8498880084680884FF6FF7101EA5B
:104C70000020B449888002F0E5F9B24989880843E8
:104C8000B04988800846808845F21031884254D067
:104C90004FF45A4002F01AFD02F0D4F9A949888075
:104CA0004FF45B4002F012FD02F0CCF9A549888078
:104CB000084680884FF6FF7101EA0020A1498880EC
:104CC0004FF45C4002F002FD02F0BCF99D49898876
:104CD00008439C49888008468088B0F5004F02D17F
:104CE00045F2105088809748808845F210518842DC
:104CF00023D0A12002F0EAFC02F0A4F991498880B7
:104D000002F0A0F98F498880084680884FF6FF712D
:104D100001EA00208B49888002F094F9894989884A
:104D20000843884988800846808845F26171884236
:104D300003D141F66310834988808248818886A028
:104D4000FBF7DEFA7F48808849F2413188427CD106
:104D5000CF2002F0BBFC002002F0ACFCC12002F02E
:104D6000A9FC302002F0A6FCED2002F0AFFC64208C
:104D700002F0A0FC032002F09DFC122002F09AFC3D
:104D8000812002F097FCE82002F0A0FC852002F0D0
:104D900091FC102002F08EFC7A2002F08BFCCB20DC
:104DA00002F094FC392002F085FC2C2002F082FCF9
:104DB000002002F07FFC342002F07CFC022002F094
:104DC00079FCF72002F082FC202002F073FCEA203C
:104DD00002F07CFC002002F06DFC002002F06AFC76
:104DE000C02002F073FC1B2002F064FCC12002F022
:104DF0006DFC012002F05EFCC52002F067FC302053
:104E000002F058FC302002F055FCC72002F05EFC96
:104E1000B72002F04FFC362002F058FC482002F088
:104E200049FC3A2002F052FC552002F043FCB1202C
:104E300002F04CFC002002F03DFC1A2002F03AFC8B
:104E4000B62002F043FC0A2000E0ABE002F032FCA6
:104E5000A22002F02FFCF22002F038FC002002F029
:104E600029FC262002F032FC012002F023FCE02085
:104E700002F02CFC0F2002F01DFC2A2002F01AFC8C
:104E8000282002F017FC082002F014FC0E2002F08B
:104E900011FC082002F00EFC542002F00BFCA920AB
:104EA00002F008FC432002F005FC0A2002F002FC9C
:104EB0000F2002F0FFFB002002F0FCFB002002F0BC
:104EC000F9FB002002F0F6FB002002F0F3FBE120EA
:104ED00002F0FCFB002002F0EDFB152002F0EAFBE3
:104EE000172002F0E7FB072002F0E4FB112002F09C
:104EF000E1FB062002F0DEFB2B2002F0DBFB56205C
:104F000002F0D8FB3C2002F0D5FB052002F0D2FBDA
:104F1000102002F0CFFB0F2002F0CCFB3F2002F06C
:104F2000C9FB3F2002F0C6FB0F2002F0C3FB2B2081
:104F300002F0CCFB002002F0BDFB002002F0BAFB27
:104F4000012011E0540202203038024000040240E7
:104F500008020220040100A0204C43442049443AA6
:104F600025780D0A0000000002F0A4FB3F2002F0AB
:104F7000A1FB2A2002F0AAFB002002F09BFB0020EC
:104F800002F098FB002002F095FBEF2002F092FB6C
:104F9000112002F09BFB782004F0E2FB292002F0B4
:104FA00095FBD8E5FE48808845F21031884240F0F4
:104FB0007C87ED2002F08AFB012002F07BFBFE20C3
:104FC00002F078FBEE2002F081FBDE2002F072FBA3
:104FD000212002F06FFBF12002F078FB012002F0AB
:104FE00069FBDF2002F072FB102002F063FBC4209B
:104FF00002F06CFB8F2002F05DFBC62002F066FB26
:10500000002002F057FBE22002F054FBE22002F005
:1050100051FBE22002F04EFBBF2002F057FBAA201A
:1050200002F048FBB02002F051FB0D2002F042FBE1
:10503000002002F03FFB0D2002F03CFB002002F0BC
:1050400039FB112002F036FB002002F033FB19205F
:1050500002F030FB002002F02DFB212002F02AFBA1
:10506000002002F027FB2D2002F024FB002002F09C
:1050700021FB3D2002F01EFB002002F01BFB5D2007
:1050800002F018FB002002F015FB5D2002F012FB7D
:10509000002002F00FFBB12002F018FB802002F08C
:1050A00009FB002002F006FB8B2002F003FB00202E
:1050B00002F000FB962002F0FDFA002002F0FAFA5E
:1050C000B22002F003FB002002F0F4FA002002F00C
:1050D000F1FA022002F0EEFA002002F0EBFA0320CF
:1050E00002F0E8FA002002F0E5FAB32002F0EEFA4E
:1050F000002002F0DFFA002002F0DCFA002002F0CB
:10510000D9FA002002F0D6FA002002F0D3FA0020EB
:1051100002F0D0FA002002F0CDFA002002F0CAFA24
:10512000002002F0C7FA002002F0C4FA002002F0CA
:10513000C1FA002002F0BEFA002002F0BBFA002003
:1051400002F0B8FA002002F0B5FA002002F0B2FA3C
:10515000002002F0AFFA002002F0ACFA002002F0CA
:10516000A9FA002002F0A6FA002002F0A3FA00201B
:1051700002F0A0FA002002F09DFA002002F09AFA54
:10518000B42002F0A3FA8B2002F094FA002002F07F
:1051900091FA962002F08EFA002002F08BFAA120FC
:1051A00002F088FA002002F085FAB52002F08EFAAB
:1051B000022002F07FFA002002F07CFA032002F0C5
:1051C00079FA002002F076FA042002F073FA002047
:1051D00002F070FAB62002F079FA002002F06AFAC2
:1051E000002002F067FAB72002F070FA002002F007
:1051F00061FA002002F05EFA3F2002F05BFA002024
:1052000002F058FA5E2002F055FA002002F052FA3D
:10521000642002F04FFA002002F04CFA8C2002F0D9
:1052200049FA002002F046FAAC2002F043FA0020CE
:1052300002F040FADC2002F03DFA002002F03AFAD7
:10524000702002F037FA002002F034FA902002F0C9
:1052500031FA002002F02EFAEB2002F02BFA0020A7
:1052600002F028FADC2002F025FA002002F022FAEF
:10527000B82002F02BFA002002F01CFA002002F005
:1052800019FA002002F016FA002002F013FA0020AA
:1052900002F010FA002002F00DFA002002F00AFAE3
:1052A000002002F007FABA2002F010FA242002F0DF
:1052B00001FA002002F0FEF9002002F0FBF90020C4
:1052C00002F0F8F9C12002F001FA202002F0F2F910
:1052D000002002F0EFF9542002F0ECF9002002F077
:1052E000E9F9FF2002F0E6F9002002F0E3F9C2201C
:1052F00002F0ECF90A2002F0DDF9002002F0DAF900
:10530000042002F0D7F9002002F0D4F9C32002F003
:10531000DDF93C2002F0CEF9002002F0CBF93A2072
:1053200002F0C8F9002002F0C5F9392002F0C2F9F4
:10533000002002F0BFF9372002F0BCF9002002F093
:10534000B9F93C2002F0B6F9002002F0B3F936209A
:1053500002F0B0F9002002F0ADF9322002F0AAF913
:10536000002002F0A7F92F2002F0A4F9002002F09B
:10537000A1F92C2002F09EF9002002F09BF92920CF
:1053800002F098F9002002F095F9262002F092F937
:10539000002002F08FF9242002F08CF9002001E0B7
:1053A0005402022002F086F9242002F083F9002042
:1053B00002F080F9232002F07DF9002002F07AF952
:1053C0003C2002F077F9002002F074F9362002F058
:1053D00071F9002002F06EF9322002F06BF9002022
:1053E00002F068F92F2002F065F9002002F062F95E
:1053F0002C2002F05FF9002002F05CF9292002F075
:1054000059F9002002F056F9262002F053F9002045
:1054100002F050F9242002F04DF9002002F04AF980
:10542000242002F047F9002002F044F9232002F082
:1054300041F9002002F03EF9C42002F047F9622051
:1054400002F038F9002002F035F9052002F032F9B7
:10545000002002F02FF9842002F02CF9002002F045
:1054600029F9F02002F026F9002002F023F9182093
:1054700002F020F9002002F01DF9A42002F01AF930
:10548000002002F017F9182002F014F9002002F0B1
:1054900011F9502002F00EF9002002F00BF90C2057
:1054A00002F008F9002002F005F9172002F002F9D5
:1054B000002002F0FFF8952002F0FCF8002002F036
:1054C000F9F8F32002F0F6F8002002F0F3F8E620F5
:1054D00002F0F0F8002002F0EDF8C52002F0F6F836
:1054E000322002F0E7F8002002F0E4F8442002F055
:1054F000E1F8002002F0DEF8652002F0DBF8002081
:1055000002F0D8F8762002F0D5F8002002F0D2F8A8
:10551000882002F0CFF8002002F0CCF8C62002F07C
:10552000D5F8202002F0C6F8002002F0C3F81720BA
:1055300002F0C0F8002002F0BDF8012002F0BAF835
:10554000002002F0B7F8C72002F0C0F8002002F0F7
:10555000B1F8002002F0AEF8002002F0ABF8002015
:1055600002F0A8F8C82002F0B1F8002002F0A2F87A
:10557000002002F09FF8002002F09CF8002002F0CA
:1055800099F8C92002F0A2F8002002F093F8002058
:1055900002F090F8002002F08DF8002002F08AF866
:1055A000002002F087F8002002F084F8002002F0CA
:1055B00081F8002002F07EF8002002F07BF8002045
:1055C00002F078F8002002F075F8002002F072F87E
:1055D000002002F06FF8002002F06CF8002002F0CA
:1055E00069F8002002F066F8E02002F06FF816205B
:1055F00002F060F8002002F05DF81C2002F05AF87A
:10560000002002F057F8212002F054F8002002F0A8
:1056100051F8362002F04EF8002002F04BF84620F8
:1056200002F048F8002002F045F8522002F042F85B
:10563000002002F03FF8642002F03CF8002002F065
:1056400039F87A2002F036F8002002F033F88B2087
:1056500002F030F8002002F02DF8992002F02AF82C
:10566000002002F027F8A82002F024F8002002F021
:1056700021F8B92002F01EF8002002F01BF8C42027
:1056800002F018F8002002F015F8CA2002F012F813
:10569000002002F00FF8D22002F00CF8002002F0F7
:1056A00009F8D92002F006F8002002F003F8E02003
:1056B00002F000F8002001F0FDFFF32001F0FAFFF6
:1056C000002001F0F7FFE12002F000F8162001F0C1
:1056D000F1FF002001F0EEFF1C2001F0EBFF0020A5
:1056E00001F0E8FF222001F0E5FF002001F0E2FFD9
:1056F000362001F0DFFF002001F0DCFF452001F043
:10570000D9FF002001F0D6FF522001F0D3FF002086
:1057100001F0D0FF642001F0CDFF002001F0CAFFAE
:105720007A2001F0C7FF002001F0C4FF8B2001F0B8
:10573000C1FF002001F0BEFF992001F0BBFF002057
:1057400001F0B8FFA82001F0B5FF002001F0B2FF82
:10575000B92001F0AFFF002001F0ACFFC42001F040
:10576000A9FF002001F0A6FFCA2001F0A3FF00203E
:1057700001F0A0FFD22001F09DFF002001F09AFF70
:10578000D82001F097FF002001F094FFE02001F005
:1057900091FF002001F08EFFF32001F08BFF00202D
:1057A00001F088FFE22001F091FF052001F082FF67
:1057B000002001F07FFF0B2001F07CFF002001F0B2
:1057C00079FF1B2001F076FF002001F073FF3420E9
:1057D00001F070FF002001F06DFF442001F06AFF2E
:1057E000002001F067FF4F2001F064FF002001F06E
:1057F00061FF612001F05EFF002001F05BFF792076
:1058000001F058FF002001F055FF882001F052FF01
:10581000002001F04FFF972001F04CFF002001F025
:1058200049FFA62001F046FF002001F043FFB7200A
:1058300001F040FF002001F03DFFC22001F03AFFDF
:10584000002001F037FFC72001F034FF002001F0F5
:1058500031FFD12001F02EFF002001F02BFFD620D8
:1058600001F028FF002001F025FFDD2001F022FFDC
:10587000002001F01FFFF32001F01CFF002001F0C9
:1058800019FFE32001F022FF052001F013FF0020A3
:1058900001F010FF0A2001F00DFF002001F00AFFC7
:1058A0001C2001F007FF002001F004FF332001F06D
:1058B00001FF002001F0FEFE442001F0FBFE00206D
:1058C00001F0F8FE502001F0F5FE002001F0F2FE9C
:1058D000622001F0EFFE002001F0ECFE782001F0E4
:1058E000E9FE002001F0E6FE882001F0E3FE002042
:1058F00001F0E0FE972001F0DDFE002001F0DAFE6D
:10590000A62001F0D7FE002001F0D4FEB72001F060
:10591000D1FE002001F0CEFEC22001F0CBFE00201F
:1059200001F0C8FEC72001F0C5FE002001F0C2FE54
:10593000D12001F0BFFE002001F0BCFED52001F017
:10594000B9FE002001F0B6FEDD2001F0B3FE00201C
:1059500001F0B0FEF32001F0ADFE002001F0AAFE40
:10596000E42001F0B3FE012001F0A4FE002001F0CC
:10597000A1FE012001F09EFE002001F09BFE02200E
:1059800001F098FE002001F095FE2A2001F092FE21
:10599000002001F08FFE3C2001F08CFE002001F081
:1059A00089FE4B2001F086FE002001F083FE5D2081
:1059B00001F080FE002001F07DFE742001F07AFEEF
:1059C000002001F077FE842001F074FE002001F039
:1059D00071FE932001F06EFE002001F06BFEA2200C
:1059E00001F068FE002001F065FEB32001F062FEC8
:1059F000002001F05FFEBE2001F05CFE002001F0FF
:105A000059FEC42001F056FE002001F053FECD20C7
:105A100001F050FE002001F04DFED32001F04AFEBF
:105A2000002001F047FEDD2001F044FE002001F0DF
:105A300041FEF32001F03EFE002001F03BFEE52098
:105A400001F044FE002001F035FE002001F032FE9E
:105A5000002001F02FFE002001F02CFE022001F0BA
:105A600029FE002001F026FE292001F023FE00205F
:105A700001F020FE3C2001F01DFE002001F01AFE86
:105A80004B2001F017FE002001F014FE5D2001F014
:105A900011FE002001F00EFE742001F00BFE00202C
:105AA00001F008FE842001F005FE002001F002FE56
:105AB000932001F0FFFD002001F0FCFDA22001F089
:105AC000F9FD002001F0F6FDB32001F0F3FD002008
:105AD00001F0F0FDBE2001F0EDFD002001F0EAFD37
